:100000000C9463000C948B000C948B000C94B4063D
:100010000C94B4060C94B4060C948B000C948B00D6
:100020000C948B000C948B000C948B000C942C077C
:100030000C948B000C948B000C948B000C948B0014
:100040000C946A060C948B000C9438060C941206DF
:100050000C948B000C948B000C948B000C948B00F4
:100060000C948B000C948B000000000024002700EF
:100070002A0000000008000201000003040700003D
:1000800000000000000000000000230026002900FE
:1000900000000000250028002B00040404040404D0
:1000A0000404020202020202030303030303010227
:1000B00004081020408001020408102001020408F6
:1000C0001020E8072B0E11241FBECFEFD8E0DEBFB3
:1000D000CDBF12E0A0E0B1E0E4E4F2E202C005909E
:1000E0000D92A832B107D9F724E0A8E2B2E001C02E
:1000F0001D92A236B207E1F710E0C2E6D0E004C0DC
:100100002197FE010E941D0FC136D107C9F70E9439
:10011000E5090C9415110C940000CF92DF92EF9238
:10012000FF92DC01A03282E0B807D4F5A53BB1050F
:1001300014F0A4EBB0E04091C40328E830E0241BA5
:10014000310947FD3395220F331F220F331F6901F9
:10015000330FEE08FF084091C50328E532E0241B69
:10016000310947FD3395220F331F220F331F032E12
:10017000000C440B550B2C193D094E095F09B7FFC4
:1001800002C0B0E0A0E00E94790E24EB30E040E035
:1001900050E00E944F0EC20ED31EE41EF51ED60183
:1001A000E091C303EC3080F52091C40388E890E02F
:1001B000821B910927FD9395880F991F880F991F1E
:1001C000A817B90784F02091C50388E592E0821B47
:1001D000910927FD9395880F991F880F991FA817DC
:1001E000B9070CF4CD010297880F991F4FB7F89407
:1001F0002E2F30E0F901EE0FFF1FE20FF31FE95E33
:10020000FC4F928381834FBFFF90EF90DF90CF90A0
:10021000089596E0899FD0011124A45CBC4F90966C
:100220007C936E935F9791E091969C939197E09168
:10023000A903F091AA039091A803992339F030976C
:1002400051F0811108C0809158030994309719F03A
:100250005C968C91FACF0895CF92DF92EF92FF9245
:100260000F931F9396E0899FF0011124E45CFC4FEB
:1002700011A2278D30A12130310551F178F02230C3
:10028000310509F451C02330310509F452C01F91E2
:100290000F91FF90EF90DF90CF9008956623B9F310
:1002A00061E070E00E9409012FB7F8948091760216
:1002B00090917702A0917802B09179022FBF80933C
:1002C000940390939503A0939603B0939703DFCF85
:1002D0009FB7F894C0907602D0907702E0907802B1
:1002E000F09079029FBF00919403109195032091A3
:1002F000960330919703C01AD10AE20AF30A0091DB
:10030000A6031091A70330E020E00C151D052E0573
:100310003F0550F462E070E01F910F91FF90EF9065
:10032000DF90CF900C9409016111B1CF63E070E0D0
:10033000F3CF70E060E0F0CFFC01538D448D252FAA
:1003400030E0842F90E0821B930B541710F0CF966F
:10035000089501970895FC01918D828D981761F0A1
:10036000A28DAE0FBF2FB11D5D968C91928D9F5FB8
:100370009F73928F90E008958FEF9FEF0895FC0197
:10038000918D828D981731F0828DE80FF11D858D4A
:1003900090E008958FEF9FEF0895FC01918D228DDD
:1003A000892F90E0805C9F4F821B91098F73992762
:1003B0000895FC01A48DA80FB92FB11DA35ABF4FFA
:1003C0002C91848D90E001968F739927848FA68954
:1003D000B7892C93A089B1898C91837080648C93A8
:1003E000938D848D981306C00288F389E02D808157
:1003F0008F7D80830895EF92FF920F931F93CF9389
:10040000DF93EC0181E0888F9B8D8C8D98131AC04F
:10041000E889F989808185FF15C09FB7F894EE8936
:10042000FF896083E889F989808183708064808393
:100430009FBF81E090E0DF91CF911F910F91FF90DE
:10044000EF900895F62E0B8D10E00F5F1F4F0F7386
:100450001127E02E8C8D8E110CC00FB607FCFACF41
:10046000E889F989808185FFF5CFCE010E94D90105
:10047000F1CFEB8DEC0FFD2FF11DE35AFF4FF08212
:100480009FB7F8940B8FEA89FB8980818062CFCF78
:10049000CF93DF93EC01888D8823B9F0AA89BB89BB
:1004A000E889F9898C9185FD03C0808186FD0DC0A6
:1004B0000FB607FCF7CF8C9185FFF2CF808185FFC7
:1004C000EDCFCE010E94D901E9CFDF91CF91089500
:1004D0008AE792E00E94CD0121E0892B09F420E017
:1004E000822F089580E090E0892B29F00E94680215
:1004F00081110C9400000895AF92BF92CF92DF92C9
:10050000EF92FF920F931F93CF93DF936C017B01C8
:100510008B01040F151FEB015E01AE18BF08C01759
:10052000D10759F06991D601ED91FC910190F081CC
:10053000E02DC6010995892B79F7C501DF91CF918F
:100540001F910F91FF90EF90DF90CF90BF90AF90F1
:100550000895833081F028F4813099F08230A9F039
:1005600008958730A9F08830C9F08430B1F48091C3
:1005700080008F7D03C0809180008F778093800002
:10058000089584B58F7784BD089584B58F7DFBCFA2
:100590008091B0008F778093B00008958091B00073
:1005A0008F7DF9CFCF93DF93282F30E0F901EE58FC
:1005B000FF4F8491F901E255FF4FD491F901E656BE
:1005C000FF4FC491CC23A1F081110E94A902EC2F0E
:1005D000F0E0EE0FFF1FEA57FF4FA591B491EC91A9
:1005E000ED2381E090E009F480E0DF91CF91089560
:1005F00080E090E0FACF862F0C94D2021F93CF9325
:10060000DF93282F30E0F901EE58FF4F8491F90174
:10061000E255FF4FD491F901E656FF4FC491CC2328
:10062000A9F0162F81110E94A902EC2FF0E0EE0F25
:10063000FF1FE057FF4FA591B4918FB7F894EC914D
:10064000111108C0D095DE23DC938FBFDF91CF91CD
:100650001F910895DE2BF8CF862F642F0C94FE0295
:10066000CF93DF9390E0FC01E255FF4F2491865633
:100670009F4FFC0184918823C9F090E0880F991F57
:10068000FC01E859FF4FA591B491FC01E057FF4FE1
:10069000C591D49161110DC09FB7F8948C912095AC
:1006A00082238C938881282328839FBFDF91CF9159
:1006B0000895623051F49FB7F8943C91822F809551
:1006C00083238C93E8812E2BEFCF8FB7F894EC9196
:1006D0002E2B2C938FBFEACF862F642F0C943003E0
:1006E0003FB7F89480916E0290916F02A0917002D2
:1006F000B091710226B5A89B05C02F3F19F0019655
:10070000A11DB11D3FBFBA2FA92F982F8827BC016B
:10071000CD01620F711D811D911D42E0660F771F93
:10072000881F991F4A95D1F708958F929F92AF9293
:10073000BF92CF92DF92EF92FF924B015C010E9439
:1007400070036B017C010E9470036C197D098E0996
:100750009F09683E734081059105A8F321E0821A44
:100760009108A108B10888EEC80E83E0D81EE11CEC
:10077000F11C81149104A104B10429F7FF90EF90BA
:10078000DF90CF90BF90AF909F908F900895209171
:100790006B0230916C022817390771F490916A024C
:1007A00080916902981741F0E0916A02F0E0E75DFC
:1007B000FD4F808190E008958FEF9FEF0895089599
:1007C000EF92FF920F931F93CF93DF93DC015C9620
:1007D000ED90FC905D97E114F10479F481E090E0F4
:1007E00013969C938E93129790E080E0DF91CF91C7
:1007F0001F910F91FF90EF9008955196ED91FC910C
:10080000529750968C915097982F90950FB75E966F
:100810002C915E97122F127021FD6095F894208123
:10082000112319F1282B2083E7012197F1F728E004
:10083000462F50E0308160FF1AC0382B3083E7012B
:100840002197F1F7BA0175956795215089F7112322
:1008500081F08081892380830FBF5C968D919C916C
:100860000197F1F781E090E0C1CF2923DCCF392354
:10087000E5CF9081892BEFCF20916B0230916C02F4
:100880002817390771F48091690220916A0290E07B
:10089000805C9F4F821B910960E470E00E94F50E1E
:1008A000089590E080E0089520916B0230916C02F1
:1008B00028173907B9F490916A0280916902981754
:1008C00089F0E0916A02F0E0E75DFD4F80812091C0
:1008D0006A0230E02F5F3F4F2F73332720936A0265
:1008E00090E008958FEF9FEF0895089590E080E0E5
:1008F0000895CF93DF93EC0160E08E810E94FE02A9
:1009000061E08E810E94FE0260E08E810E94FE0204
:100910008BE891E00197F1F7DF91CF910895CF92A5
:10092000DF92EF92FF920F931F93CF93DF936C01AF
:100930007C0187E0E80EF11CD0E0C0E0062F10E05B
:10094000B8010C2E02C0759567950A94E2F76170A4
:10095000F70181917F010E94FE022196C430D105EA
:1009600079F7C601DF91CF911F910F91FF90EF9022
:10097000DF90CF900C947904CF92DF92EF92FF92A8
:100980000F931F93CF93DF93EC01F62E642F8C818E
:100990000E94FE028D818F3F19F060E00E94FE02EE
:1009A0000F2D10E08F8584FF25C06E0187E0C80EF3
:1009B000D11CF12CE12CB8010E2C02C07595679565
:1009C0000A94E2F76170F60181916F010E94FE02C4
:1009D000FFEFEF1AFF0A88E0E816F10461F7CE0195
:1009E000DF91CF911F910F91FF90EF90DF90CF900B
:1009F0000C947904B80184E0759567958A95E1F7C0
:100A0000CE010E948F046F2DCE01DF91CF911F91F7
:100A10000F91FF90EF90DF90CF900C948F0440E007
:100A2000682F8BEA93E00C94BC0481E00E940F05D0
:100A30008BE39FE10197F1F70895CF93DF93823025
:100A400029F49091BA0398609093BA038093BE03FF
:100A50001092BF0380E48093C00380E18093C103C0
:100A600080E58093C20361E08091AF030E94300370
:100A70008091B0038F3F19F061E00E94300361E084
:100A80008091B1030E943003CBEAD3E09E012B5A40
:100A900033408091BA0384FD0BC084E090E021963E
:100AA0002817390744F461E08E810E943003EECFAD
:100AB00088E090E0F4CF8BE39DE00197F1F760E0F0
:100AC0008091AF030E94FE0260E08091B1030E941A
:100AD000FE028091B0038F3F19F060E00E94FE0299
:100AE0008091BA0384FD34C063E08BEA93E00E94F6
:100AF0008F04CBE4D6E4CE010197F1F763E08BEAF3
:100B000093E00E948F042197F1F763E08BEA93E072
:100B10000E948F0483E592E00197F1F762E08BEA8F
:100B200093E00E948F048091BA0380620E940F05B7
:100B300084E08093BB038CE00E940F050E941505A2
:100B400082E08093BC0386E0DF91CF910C940F0587
:100B500080620E940F058BE496E40197F1F7809183
:100B6000BA0380620E940F0583E592E00197F1F7D6
:100B70008091BA0380620E940F05D5CF643008F0DF
:100B800063E09091BE03691710F06FEF690FE62FD5
:100B9000F0E0E555FC4F9489890F80680C940F05AF
:100BA00041E00E94BC0481E090E00895FB010190C7
:100BB0000020E9F73197AF01461B570BDC01ED919F
:100BC000FC910280F381E02D0994BC018BEA93E053
:100BD0000C94D6050F931F93CF93DF93EC010E94E3
:100BE000D6058C0163E571E0CE010E94D605800F29
:100BF000911FDF91CF911F910F91089560E080E0E8
:100C00000E94BE0566E571E08BEA93E00E94EA056A
:100C100061E081E00E94BE0565E671E08BEA93E049
:100C20000C94EA051F920F920FB60F9211242F9386
:100C30003F934F935F936F937F938F939F93AF9364
:100C4000BF93EF93FF938AE792E00E94D901FF914F
:100C5000EF91BF91AF919F918F917F916F915F9134
:100C60004F913F912F910F900FBE0F901F901895AD
:100C70001F920F920FB60F9211242F938F939F9371
:100C8000EF93FF93E0918A02F0918B028081E091D3
:100C90009002F091910282FD1BC09081809193029D
:100CA0008F5F8F7320919402821741F0E09193023D
:100CB000F0E0E658FD4F958F80939302FF91EF91FE
:100CC0009F918F912F910F900FBE0F901F901895AD
:100CD0008081F4CF1F920F920FB60F9211242F93A1
:100CE0003F938F939F93AF93BF93809176029091A0
:100CF0007702A0917802B091790230916D0223E0E1
:100D0000230F2D3758F50196A11DB11D20936D02BB
:100D10008093760290937702A0937802B093790241
:100D200080916E0290916F02A0917002B091710259
:100D30000196A11DB11D80936E0290936F02A09346
:100D40007002B0937102BF91AF919F918F913F91CB
:100D50002F910F900FBE0F901F90189526E8230F2C
:100D60000296A11DB11DD2CF1F920F920FB60F9206
:100D700011242F933F934F935F936F937F938F93A0
:100D80009F93AF93BF93EF93FF93E0916B02F0912A
:100D90006C02309749F0A685B7858585968D91FFC1
:100DA00014C09C918923A1F4FF91EF91BF91AF9161
:100DB0009F918F917F916F915F914F913F912F9173
:100DC0000F900FBE0F901F9018959C91892361F78B
:100DD000A389B4899C918589809589238C93868980
:100DE00097890197F1F7608D718DA685B785558537
:100DF00038E020E0CB010197F1F7822F90E0959544
:100E00008795282F4C91452309F02068315091F7A0
:100E1000868D81FD20958091690290E001968F7307
:100E2000992730916A02381799F0A0916902B0E0D1
:100E3000A75DBD4F2C9380936902828D938D01979E
:100E4000F1F7A389B4898C919589892B8C93ACCFC8
:100E5000868D8160868FF1CF1F920F920FB60F9211
:100E600011242F933F934F935F936F937F938F93AF
:100E70009F93AF93BF93CF93DF93EF93FF938091B3
:100E80002802C0913B03D0E087FF24C01092850068
:100E900010928400809128028F5F809328028091B5
:100EA0002802082E000C990B8C179D0724F48091C2
:100EB00028028C30C4F180918400909185000496C2
:100EC00080349C4908F47AC0809184009091850018
:100ED000049676C080912802082E000C990B8C177E
:100EE0009D07C4F6E09128028E2FEE0F990BFC01AE
:100EF000EE0FFF1FE80FF91FE95EFC4F808186FFB0
:100F0000C9CFE09128028E2FEE0F990BFC01EE0F56
:100F1000FF1FE80FF91FE95EFC4F808160E08F73CF
:100F20000E94FE02B7CF2091840030918500E091AD
:100F300028028E2FEE0F990BFC01EE0FFF1FE80F1A
:100F4000F91FE95EFC4F81819281820F931F90937C
:100F5000890080938800E09128028E2FEE0F990B74
:100F6000FC01EE0FFF1FE80FF91FE95EFC4F8081C7
:100F700086FF11C0E09128028E2FEE0F990BFC0125
:100F8000EE0FFF1FE80FF91FE95EFC4F808161E063
:100F90008F730E94FE02FF91EF91DF91CF91BF917D
:100FA000AF919F918F917F916F915F914F913F9101
:100FB0002F910F900FBE0F901F90189580E49CE921
:100FC00090938900809388008FEF80932802E3CF6D
:100FD00010927D0210927C0288EE93E0A0E0B0E0D7
:100FE00080937E0290937F02A0938002B09381024F
:100FF0002DE131E030937B0220937A0225EC30E042
:10100000309387022093860224EC30E030938902EB
:101010002093880220EC30E030938B0220938A02E8
:1010200021EC30E030938D0220938C0222EC30E0F2
:1010300030938F0220938E0226EC30E030939102A1
:1010400020939002109293021092940210929502B3
:10105000109296021092420410924104809343042D
:1010600090934404A0934504B093460485E491E032
:101070009093400480933F041092560410925504BC
:10108000109258041092570410925A041092590466
:1010900010925C0410925B0460915D046E7F6D7F22
:1010A00060935D046695617081E0682788E00E9426
:1010B000FE0261E088E00E943003E6EBF0E0E4919C
:1010C000E0934F04E2EAF0E0E491F0E0EE0FFF1F5E
:1010D000E057FF4F85919491909351048093500471
:1010E00060E087E00E94300380915D0481FD04C0D0
:1010F00061E087E00E94FE0287E080934B04E5EB0D
:10110000F0E0E491E0934C04E1EAF0E0E491F0E0F7
:10111000EE0FFF1FEA57FF4F8591949190934E0475
:1011200080934D044FEF5FEFBA014093CC0350938F
:10113000CD036093CE037093CF031092D40310922B
:10114000D5031092D6031092D7038FEF99ECAAE93A
:10115000BBE38093DC039093DD03A093DE03B093A5
:10116000DF038093E4039093E503A093E603B09339
:10117000E7038093EC039093ED03A093EE03B09309
:10118000EF038093F4039093F503A093F603B093D9
:10119000F7038093FC039093FD03A093FE03B093A9
:1011A000FF03409304045093050460930604709376
:1011B00007048FEF90E090930D0480930C0440930C
:1011C000100450931104609312047093130440931D
:1011D00018045093190460931A0470931B0410921E
:1011E00020041092210482E0809331041092320492
:1011F0001092330410923404109235041092360485
:10120000109237041092380410923A041092390464
:1012100010923C0410923B04109222041092C703D7
:101220001092C6031092C9031092C8031092CB0308
:101230001092CA0361E070E090E080E00E944810E4
:10124000009709F19093C7038093C6031092C903D6
:101250001092C8032091CA033091CB03232B11F4C1
:10126000FC0110821092CB031092CA0365E571E075
:101270008091C6039091C7030E940E1118C08FEF92
:101280008093C3032AC08091C6039091C70300973F
:1012900011F00E94BF0F1092C7031092C603109264
:1012A000CB031092CA031092C9031092C803809115
:1012B0003B038C3020F791E0980F90933B03809391
:1012C000C30390E0FC01EE0FFF1FE80FF91FE95E7A
:1012D000FC4F88EB9BE0928381831092AE031092C7
:1012E000AD0389E391E09093AC038093AB0382E17B
:1012F0008093AF038FEF8093B00383E18093B103BA
:1013000081E18093B20380E18093B3038FE0809307
:10131000B4038EE08093B5031092B6031092B70326
:101320001092B8031092B9031092BA0381E00E94A0
:101330001D0510923E031092420310924103109239
:1013400043038FE291E090933D0380933C03E8E5F3
:10135000F3E01082148213821582369683E0E4391A
:10136000F807B9F783E091E090939F0380939E0381
:1013700080E091E09093A1038093A00384E08093A8
:10138000A20383E08093A30387E091E090939D0301
:1013900080939C038AE090E09093A5038093A4033C
:1013A00084EF91E09093A7038093A6031092AA0381
:1013B0001092A903109298031092990310929A0325
:1013C00010929B031092A8030895789484B58260CC
:1013D00084BD84B5816084BD85B5826085BD85B5D9
:1013E000816085BD80916E00816080936E00109257
:1013F00081008091810082608093810080918100D2
:101400008160809381008091800081608093800062
:101410008091B10084608093B1008091B0008160C0
:101420008093B00080917A00846080937A008091EC
:101430007A00826080937A0080917A008160809344
:101440007A0080917A00806880937A001092C100BF
:101450000E94FE058091C3038C3008F051C061E00A
:1014600089E00E9430038091C303282F30E0F90106
:10147000EE0FFF1FE20FF31FE95EFC4F9081907C9F
:10148000996090831092C4031092C5032CE0622FE0
:101490000E94E90E829FB001112430E020E0AB01F0
:1014A000420F531FFA01EE0FFF1FE40FF51FE95E15
:1014B000FC4F908196FD16C02F5F3F4F2C303105B9
:1014C00071F781110FC01092800082E0809381003B
:1014D0001092850010928400B19A80916F00826012
:1014E00080936F00E091C3038E2F90E0FC01EE0F1C
:1014F000FF1FE80FF91FE95EFC4F80818064808345
:1015000082E00E941D05812C912C5401839440E0BF
:10151000442E40E0542E54EB652E712C80917402C1
:1015200090917502892B11F40E94FE0551E05093B1
:10153000A8038FB7F894409176025091770260919A
:101540007802709179028FBF8091980390919903EE
:10155000A0919A03B0919B03481B590B6A0B7B0B1C
:101560008091A4039091A503B0E0A0E084179507B3
:10157000A607B70708F017C1C0E08091A203C817FB
:1015800060F4E0919E03F0919F03EC0FF11D62E087
:1015900080810E943003CF5FF0CF312C8091A30374
:1015A000381608F05FC0032D10E0E091A003F09121
:1015B000A103E00FF11F61E080810E943003E09100
:1015C000A003F091A103E00FF11F60E080810E9471
:1015D000FE02D501C401032C04C0880F991FAA1F65
:1015E000BB1F0A94D2F76C017C01E094F094212C8B
:1015F0008091A2032816F8F4C22DD0E0E0919E035A
:10160000F0919F03EC0FFD1F80810E94D20224966F
:10161000CC0FDD1FC45CDC4F892B41F4888199819C
:101620008C299D29998388832394E2CF888199818D
:101630008E219F21F7CFE091A003F091A103E00F4D
:10164000F11F61E080810E94FE028091A0039091D1
:10165000A103080F191F60E0F80180810E94300388
:1016600033949CCFCCE3D3E0FE01878D90A1892BEE
:1016700031F4148E8FEF9FEF968F858F11A23696DF
:1016800093E0E837F90789F7F12C8091A203F81667
:1016900008F051C0E12C0F2D10E0000F111F0C5B62
:1016A0001C4F2091A303E21608F043C0F8016081AB
:1016B00071810E2C02C0769567950A94E2F7F29E2E
:1016C000900111242E0D311DECE3F3E080E0458DF7
:1016D000568D2417350709F4BCC28F5F36968A30C1
:1016E000B1F760FF24C0ECE3F3E090E080E0448DCC
:1016F000411118C0E0919C03F0919D03E20FF31F8C
:10170000408156E0589FF001599FF00D1124E45C90
:10171000FC4F448F368F258F10A2178E61E00E94F8
:101720002C0105C0019636968A30910501F7E394A5
:10173000B8CFF394AACF80E099A19111892F269672
:1017400093E0C837D907C1F79FB7F8944091760264
:101750005091770260917802709179029FBF409317
:1017600098035093990360939A0370939B03882383
:10177000D1F080915D038823B1F080915B0390915B
:101780005C03019781F41091580311110FC04114AB
:10179000510409F4C3CE0E946802882309F4BECE26
:1017A0000E940000BBCE1092A803F1CF0E94150545
:1017B00060E080E00E94BE0584E791E00E94E505BC
:1017C00061E087E00E94BE058EE791E00E94E5059A
:1017D00061E087E00E94BE05D0E0C0E08091740225
:1017E000909175028C179D0734F080E891E00E947B
:1017F000E5052196F3CFFC01EE57FE4F2081211322
:10180000DDC101969093750280937402049709F0EC
:10181000BECF64E873E080E090E00E94950360E052
:1018200080E00E94BE056EE771E08BEA93E00E94C3
:10183000EA0560E081E00E94BE0587E891E00E9431
:10184000E50561E084E00E94BE0566E971E08BEA8F
:1018500093E00E94EA0561E08FE00E94BE056EE71A
:1018600071E08BEA93E00E94EA0561E080E10E946A
:10187000BE056EE771E08BEA93E00E94EA0561E045
:101880008EE00E94BE056EE771E08BEA93E00E9455
:10189000EA0561E08DE00E94BE056EE771E08BEA2B
:1018A00093E00E94EA057092730260927202C09106
:1018B0007202D0917302D7FD0FC0CE010E948D003D
:1018C00065E070E080E090E00E9495032597D0935A
:1018D0007302C0937202EBCF60ED77E080E090E09E
:1018E0000E94950368EE73E080E090E00E9495030B
:1018F00060EB74E080E090E00E9495030E94150583
:101900006FE082E00E94BE056EE771E08BEA93E033
:101910000E94EA056EE082E00E94BE056EE771E07B
:101920008BEA93E00E94EA0560E082E00E94BE0537
:1019300068EC70E080E090E00E94950360EA71E05E
:101940008BEA93E00E94EA0561E084E00E94BE0514
:1019500081EB91E00E94E50568EC70E080E090E0AA
:101960000E9495030E94150560E082E00E94BE057A
:1019700063EB71E08BEA93E00E94EA0568EE73E0A6
:1019800080E090E00E94950360E082E00E94BE0546
:1019900063EB71E08BEA93E00E94EA0561E084E08A
:1019A0000E94BE0582EC91E00E94E50564E670E0CD
:1019B00080E090E00E9495030E94150560E082E0BF
:1019C0000E94BE0563EB71E08BEA93E00E94EA059A
:1019D00068EE73E080E090E00E94950360E082E0B2
:1019E0000E94BE0563EB71E08BEA93E00E94EA057A
:1019F00061E084E00E94BE0585E891E00E94E50573
:101A000064E670E080E090E00E9495030E94150576
:101A100060E082E00E94BE0563EB71E08BEA93E038
:101A20000E94EA0568EE73E080E090E00E94950372
:101A300060E082E00E94BE0563EB71E08BEA93E018
:101A40000E94EA0561E084E00E94BE0584EC91E01A
:101A50000E94E50564E670E080E090E00E94950356
:101A60000E94150560E082E00E94BE0563EB71E014
:101A70008BEA93E00E94EA0568EE73E080E090E074
:101A80000E94950361E084E00E94BE0586EC91E02F
:101A90000E94E50564E670E080E090E00E94950316
:101AA0000E94150560E082E00E94BE0568EC71E0CE
:101AB0008BEA93E00E94EA0568EE73E080E090E034
:101AC0000E94950368E270E080E090E00E94950338
:101AD0000E94150560E082E00E94BE0588ED91E05D
:101AE0000E94E50564EF71E080E090E00E949503BC
:101AF00060E08CE00E94BE0583EE91E00E94E50567
:101B000064EF71E080E090E00E94950360E08DE07A
:101B10000E94BE0583EE91E00E94E50564EF71E04E
:101B200080E090E00E94950360E08EE00E94BE0598
:101B300083EE91E00E94E50560E971E080E090E0CD
:101B40000E9495030E94150560E084E00E94BE0596
:101B500085EE91E00E94E50568EB71E080E090E0A1
:101B60000E94950368EE73E080E090E00E94950388
:101B7000109273021092720280917202909173021D
:101B8000853B91050CF060C00E948D006FE070E015
:101B900080E090E00E94950310927502109274020A
:101BA0000E9415050E94FE058091720290917302B9
:101BB00005969093730280937202DECF64EF71E01A
:101BC00080E090E00E9495030E94150560E081E0AE
:101BD0000E94BE0580E691E00E94E50560E086E097
:101BE0000E94BE058DEE91E00E94E50561E08FE068
:101BF0000E94BE056EE771E08BEA93E00E94EA0561
:101C000061E084E00E94BE0567EF71E08BEA93E03B
:101C10000E94EA0561E08DE00E94BE056EE771E07A
:101C20008BEA93E00E94EA0563E072E08AE792E0C3
:101C30000E94EA0568EB7BE080E090E00E9495035B
:101C40000E9415050E94FE05109275021092740202
:101C50009ECD617064CD8091C6039091C7030097BB
:101C600011F00E94BF0F85E491E0909340048093AF
:101C70003F0480916B0290916C028F53944071F4F9
:101C8000E0915204F0915304908180915404809526
:101C90008923808310926C0210926B020895052EA6
:101CA00097FB1EF400940E94660E57FD07D00E9419
:101CB000B80E07FC03D04EF40C94660E5095409578
:101CC000309521953F4F4F4F5F4F089590958095E8
:101CD000709561957F4F8F4F9F4F08950E94DA0E48
:101CE000A59F900DB49F900DA49F800D911D112470
:101CF0000895B7FF0C946E0E0E946E0E821B930B1C
:101D000008952F923F924F925F926F927F928F929F
:101D10009F92AF92BF92CF92DF92EF92FF920F937A
:101D20001F93CF93DF93CDB7DEB7CA1BDB0B0FB684
:101D3000F894DEBF0FBECDBF09942A883988488841
:101D40005F846E847D848C849B84AA84B984C884D7
:101D5000DF80EE80FD800C811B81AA81B981CE0FCE
:101D6000D11D0FB6F894DEBF0FBECDBFED010895B3
:101D7000A1E21A2EAA1BBB1BFD010DC0AA1FBB1F8F
:101D8000EE1FFF1FA217B307E407F50720F0A21B01
:101D9000B30BE40BF50B661F771F881F991F1A946E
:101DA00069F760957095809590959B01AC01BD0198
:101DB000CF010895A29FB001B39FC001A39F700DF2
:101DC000811D1124911DB29F700D811D1124911D43
:101DD0000895991B79E004C0991F961708F0961B87
:101DE000881F7A95C9F78095089597FB072E16F4FA
:101DF000009407D077FD09D00E94090F07FC05D099
:101E00003EF4909581959F4F0895709561957F4F11
:101E10000895AA1BBB1B51E107C0AA1FBB1FA61731
:101E2000B70710F0A61BB70B881F991F5A95A9F783
:101E300080959095BC01CD010895EE0FFF1F059090
:101E4000F491E02D09940F931F93CF93DF93823089
:101E5000910510F482E090E0E0916004F09161045B
:101E600030E020E0B0E0A0E0309799F42115310592
:101E700009F44AC0281B390B24303105D8F58A8172
:101E80009B816115710589F1FB0193838283FE01BA
:101E900011C0408151810281138148175907E0F038
:101EA0004817590799F4109761F012960C931297FE
:101EB00013961C933296CF01DF91CF911F910F9112
:101EC00008950093600410936104F4CF2115310547
:101ED00051F04217530738F0A901DB019A01BD0107
:101EE000DF01F801C1CFEF01F9CF90936104809336
:101EF0006004CDCFFE01E20FF31F81939193225036
:101F0000310939832883D7CF20915E0430915F0453
:101F1000232B41F4209115013091160130935F0479
:101F200020935E0420911301309114012115310595
:101F300041F42DB73EB74091170150911801241B71
:101F4000350BE0915E04F0915F04E217F307A0F413
:101F50002E1B3F0B2817390778F0AC014E5F5F4FFF
:101F60002417350748F04E0F5F1F50935F044093CE
:101F70005E04819391939FCFF0E0E0E09CCFCF93FC
:101F8000DF930097E9F0FC01329713821282A0914F
:101F90006004B0916104ED0130E020E01097A1F4FD
:101FA00020813181820F931F20915E0430915F0464
:101FB0002817390709F061C0F0935F04E0935E04CD
:101FC000DF91CF910895EA01CE17DF07E8F54A8146
:101FD0005B819E0141155105B1F7E901FB83EA835D
:101FE00049915991C40FD51FEC17FD0761F4808109
:101FF00091810296840F951FE901998388838281DC
:1020000093819B838A83F0E0E0E012968D919C910E
:1020100013970097B9F52D913C911197CD01029638
:10202000820F931F20915E0430915F0428173907B7
:1020300039F6309751F51092610410926004B09314
:102040005F04A0935E04BCCFD383C28340815181DF
:10205000840F951FC817D90761F44E5F5F4F8881C1
:102060009981480F591F518340838A819B819383B3
:1020700082832115310509F0B0CFF0936104E0931C
:1020800060049ECFFD01DC01C0CF13821282D7CF46
:10209000B0E0A0E0EEE4F0E10C94830E8C01009738
:1020A00051F4CB010E94230F8C01C801CDB7DEB7DC
:1020B000E0E10C949F0EFC01E60FF71F9C012250FB
:1020C0003109E217F30708F49DC0D901CD91DC91E5
:1020D0001197C617D70798F0C530D10530F3CE0158
:1020E00004978617970708F3C61BD70B2297C1934F
:1020F000D1936D937C93CF010E94BF0FD6CF5B012C
:10210000AC1ABD0A4C018C0E9D1EA0916004B091CA
:102110006104512C412CF12CE12C109731F5809168
:102120005E0490915F048815990509F05CC046161D
:10213000570608F058C08091130190911401009740
:1021400041F48DB79EB74091170150911801841B3F
:10215000950BE817F90708F055C0F0935F04E0937A
:102160005E04F90171836083A0CF8D919C911197DA
:1021700012966C90129713967C901397A815B90538
:1021800059F56C0142E0C40ED11CCA14DB0420F1E5
:10219000AC014A195B09DA011296159780F0628248
:1021A000738251834083D9016D937C93E114F104D0
:1021B00071F0D7011396FC93EE93129776CF229687
:1021C0008C0F9D1FF90191838083F301EFCFF09372
:1021D0006104E093600469CF4816590608F42C01A5
:1021E0007D01D3019ACFCB010E94230F7C01009780
:1021F00049F0AE01B8010E940511C8010E94BF0F4D
:10220000870153CF10E000E050CFFB01DC0102C09A
:1022100001900D9241505040D8F70895FB01DC0128
:1022200001900D920020E1F7089510E0C2E6D0E0A1
:1022300004C0FE010E941D0F2196C336D107C9F7C5
:04224000F894FFCF40
:102244000405060A0B020331323334353637383984
:102254002A302300006204800000000000FB017C9F
:10226400029C014802CD01AB01BF01000000006CDB
:10227400032C03FB0200000000D0057C02760475E9
:102284000400000000E0037C027604DF033C0454F5
:1022940004C7030D0A00454E5445522054484520B6
:1022A400434F444500544F204F50454E20444F4F18
:1022B4005221210050415353574F52443A002000B9
:1022C4002A003031323300416363657373204772EF
:1022D400616E7465640057454C434F4D45212100A0
:1022E40047455420494E2057495448494E3A3A3AB2
:1022F40000350047455420494E2057495448494E1B
:102304003A0034003200310047455420494E2057EA
:10231400495448494E3A3A0052452D4C4F434B4993
:102324004E47002E004C4F434B45442100494E4339
:102334004F52524543540047455420415741592177
:10234400212100434F444520494E434F52524543B7
:102354005420594F552041524520554E415554481B
:082364004F52495A45440000A4
:00000001FF
